:020000040000fa
:080000000002040000000000f2
:020000040000fa
:100400008fe6200000ff27000001880000000000a8
:100410000a00070011000700000020000000e000b3
:100420000200320000000200000000002a25020045
:10043000000000000040da000000fe004440a90077
:10044000c00920000000e00003003200000020008e
:10045000a00188004440a8000000060080fa2100a6
:10046000010020001500370062004000e0804800d5
:10047000910188009001ba0062004000e0804800cd
:10048000910188009002ba0062004000e0804800bc
:100490000002eb006028e10004003a000059eb0084
:1004a0008301e900fdff3e00040037006128e10000
:1004b000010032000082eb00050007009101880076
:1004c0001001ba000200e000e7ff3a00000005005a
:1004d000910188008002780062004000e0804800be
:1004e0003559ba008301e900080032002559ba00e5
:1004f0008301e900050032000400e000f4ff32004f
:1005000015d9ba008301e900f1ff3a0000000600a6
:100510009a020400000000008001eb000200370096
:10052000817178008301e800828f5100fcff3a005e
:1005300000000600881f78000204780012000700ff
:10054000080040004f04780000000600881f780073
:1005500000047800820178000101780088007800aa
:10056000a02920000f000700800078000000e000b4
:10057000020035000040eb0000f478000100780034
:100580004f047800000006008001eb0002003700f5
:1005900061f079008301e800828f5100fcff3a008e
:1005a000000006006200fa00889fbe008a9fbe001d
:1005b0000004be00020578008300780060f92f0077
:1005c0000f004000b000070088979f0099979f0098
:1005d0000000eb00a09f9f009a4578000b80fb0075
:1005e0000000ea00cf04de0050c2b30080cf550007
:1005f0000200320009047800010037000904e90014
:100600000800e0000b0034001f90970008017800fc
:100610008a0078008f9197000300010090979f0057
:100620000000e000930032002f9897000000440083
:10063000a09f9f000905450050c2b30080cf550020
:10064000040032000b04e000e3ff3a002f9897000b
:10065000890037000000eb00809f9f00f0979f000b
:10066000e0979f00d0979f00c0979f00b0979f0092
:10067000c09f9f000900370040e520000080500027
:100680000000400081e42000e10078004f989700ce
:1006900001007000c09f9f000a05e8001a4478001e
:1006a0008800fb0040e520007c0007008000780007
:1006b0000000e000f0ff3a00a0c2b300804f5400f9
:1006c0000e003a00bf8897000180e900b08f9f00bc
:1006d00010007800b09f9f000000e00005003d0082
:1006e0000000ea00b09f9f004f9897000020a000f4
:1006f000c09f9f000a05e80010003700b19f9f00cf
:1007000009003700bf989700f0ff2700808f500046
:10071000040032006a08b9000000410003004000f4
:10072000b09f9f000a05e8001a01fb0003fd2f009f
:1007300003004100e90f5000f2ff3600e0c2b300b1
:100740009a4f1000040032000080eb00909f9f0041
:100750008a0478001c0037008a04e800a0c2b300b5
:10076000994f100007003a00bf8897000180e90008
:10077000b08f9f0010007800909f9f008a84e8004f
:10078000110037000000eb00909f9f000900370028
:100790009f989700f0ff2700808f500004003200e0
:1007a0006a08b9000000410003004000909f9f00cc
:1007b0008904e8001901fb0003fd2f00030041003c
:1007c000e90f5000f2ff3600194478008800fb0062
:1007d000a0e52000310007000000e00002003a0020
:1007e00000447800010037008904e800a87f9f00da
:1007f00080c6b300804f540004003a00994f1400a3
:100800000a003a006640500006003700c0c6b30038
:10081000804f540005003a00994f140003003a003d
:1008200065404000a07f9f008904e8000905e800ba
:10083000c8fb2f000f04440060f92f000f00400098
:100840008085e800880178001941780080007800f0
:100850000b0078001a0007000000e00005003a00d5
:10086000880078000b007800920107000000e0008b
:1008700059ff3d000080eb004f05be004f04be0055
:100880000080fa00000006000200fa00f1bf9f009d
:10089000010878000080fa0000000600040037001c
:1008a0000204e00001003a00000005000000e8003a
:1008b00010417800814f5100f9ff3a000000060016
:1008c000889fbe008a1f780000047800010278002b
:1008d000824478000305780070c6b300804f510051
:1008e00021003c0000c0e900804f5100de003d00c7
:1008f00072405000804f51004b0132000d003c000f
:100900006c405000804f51005e013c0000c0e90087
:10091000804f5100d4003d0050c2b300804f5100c1
:10092000550132007c404000804f510055013a0093
:10093000cd00370010c6b300804f5100ca0032000e
:1009400004003c0069405000804f51004d013a00c6
:100950007200370030c6b300804f510018003200db
:100960000040e8000900370000c7b300804f510085
:100970001e01320008003c0000c0e900804f510019
:10098000e400320065003c006540500080cf540018
:100990003c013a000f00370050c7b300804f5100b0
:1009a0005e00320063404000804f51005b00320027
:1009b00065405000804f510032013a001a01370063
:1009c0009180e900010a7800780090009171780028
:1009d00032013700a8609000c0c6b30080cf50003d
:1009e0000a003a009400780064805000000a780001
:1009f0001000be004f89de00cf91de000002be0075
:100a000002037800820378001300370010c7b30098
:100a100080cf500003003200a0c6b30080cf50004a
:100a200006003a009400780068805000000a7800c0
:100a30003002be002003be00070037001480e9002a
:100a4000000a78001000780000027800cfa2de00d3
:100a50000503780086037800049cbe000694be005f
:100a6000a860900080c6b30080cf50000e00320016
:100a700020c6b30080cf500005003a000400fb0000
:100a8000cf80de0001017800820178000a00370083
:100a900040c7b30080cf50000300320066404000e2
:100aa00080cf500006003a0004007800cf80de00be
:100ab0000101780082017800009cbe000294be0013
:100ac0003800be002801be00e00f5000e08f580043
:100ad000e00f5900e08f590003003d0078009000be
:100ae000d1c2b3000a003700081090000018a3001c
:100af0000300320078009000b1c2b3000400370058
:100b00000008a300530032007800900001c2b30037
:100b1000017578000000e8004d003700a8609000e3
:100b2000c0c6b30080cf500006003a0094007800a1
:100b300064805000000a78001002be006033b800e4
:100b40001300370010c7b30080cf500003003200fd
:100b5000a0c6b30080cf500006003a009400780091
:100b600068805000000a78003002be002003be00fa
:100b7000070037001480e900000a780010007800b0
:100b80000002780005002000060020000700200079
:100b9000049cbe000694be00a860900080c6b3000e
:100ba00080cf50000e00320020c6b30080cf50002e
:100bb00005003a000480fb00010020000200200034
:100bc000030020000a00370040c7b30080cf500068
:100bd000030032006640400080cf500006003a001b
:100be0000400780001002000020020000300200023
:100bf000009cbe000294be00081090000038a300c4
:100c0000140032003800be002801be00e00f500082
:100c1000e08f5800e00f5900e08f59000d003200be
:100c200080c7b30080cf54000300320080c5b300fa
:100c300080cf540007003a007800900001c3b30051
:100c4000017578008000e80009f578000080e80070
:100c5000700498007800900000004500600498003f
:100c6000894078006d003700a8609000c0c4b300d0
:100c700080cf500006003a00940078006880500051
:100c8000000a78005001be004000be000500370099
:100c90009400780064805000000a78001000be00c4
:100ca0008d060700009cbe000294be003800900034
:100cb0000000e00003003d0078009000d1c2b300c6
:100cc0000a003700081090000018a300030032004b
:100cd00078009000b1c2b300040037000008a30000
:100ce000050032007800900001c2b3000175780061
:100cf0000000e800700498007800900000004500b3
:100d000060049800894078000800780033010700eb
:100d100064003700a8609000c0c6b30080cf5000c8
:100d2000250032000a003c006440500080cf500093
:100d30002800320000c0e80080cf500014003200cc
:100d40006840500080cf500022003a000a0037006f
:100d500040c7b30080cf50001e0032006640400004
:100d600080cf50001b0032006940500080cf5000ff
:100d700018003a00060037001480e900000a7800e5
:100d800010007800485c9000084878004500370063
:100d90001480e900000a78001002780068089000ca
:100da000cf80de000101780082017800009abe0049
:100db0000292be003b0037001480e900000a780070
:100dc0001001780068089000cf80de000089be0026
:100dd000340037001480e900000a78001000780021
:100de000680c9000080878002e0037001180e90098
:100df0008008780010007800cf80de0001017800c4
:100e000082017800009cbe000294be007800900031
:100e1000000045006004980081c7b3000800780016
:100e2000170307001f0037001480e900000a78004c
:100e30001000780060049800580990000200e0005b
:100e400002003d00c6030700090037008000eb00e8
:100e5000ca030700800078000000e00003003200b1
:100e60006800900000805000010037005808900092
:100e7000100c98000b003700780090000275780085
:100e80000600370078009000800045000904e0006b
:100e900001003a0059c2b300894878000000e80018
:100ea000700498000000eb004f0578004f04be006e
:100eb000000006000400fa00889fbe008a9fbe0062
:100ec0008c1f7800000478000106780070089000fc
:100ed000f8009000010050008808900001005000c8
:100ee0009808900001005000a808900001005000f0
:100ef000b808900001005000c8089000810550001b
:100f00000002220090bf9f0000032300a0bf9f00ab
:100f1000081090000028a30018003a000b00e00021
:100f2000160034008b04780009057800e28f540025
:100f3000020036002a002000020037000900e0000d
:100f40000b00340058009000c80190000a0178009e
:100f5000ee80570003000100500498000000e000fc
:100f6000960032006808900000004500600c980070
:100f70008a8454004240a900ebff3c0078019000b5
:100f80000200e0000b00340058009000c8019000ff
:100f90008c00780003000100500498000000e0007d
:100fa0008600320068089000f800900001004000c0
:100fb000600c9800880c90000900e00015003400d7
:100fc00009057800e28f5400020036002a00200054
:100fd000020037000900e0000b00340058009000c8
:100fe000c80190000a017800ec805700030001005e
:100ff000500498000000e000700032006808900083
:1010000000004500600c98008a8454004240a9000a
:10101000ebff3c00180990000200e0000b003400d8
:10102000e800900058009000c80190000300010003
:10103000500498000000e000600032006808900052
:101040009808900001004000600c9800a80c9000e7
:101050000900e0001500340009057800e28f540013
:10106000020036002a002000020037000900e000dc
:101070000b00340058009000c80190000a0178006d
:10108000ec80570003000100500498000000e000cd
:101090004a0032006808900000004500600c98008b
:1010a0008a8454004240a900ebff3c0038099000bc
:1010b0000200e0000d003400e800900018089000e5
:1010c0008080400058009000c8019000030001009b
:1010d000500498000000e0003800320068089000da
:1010e000b808900001004000600c9800c80c900007
:1010f0000900e0001500340009057800e28f540073
:10110000020036002a002000020037000900e0003b
:101110000b00340058009000c80190000a017800cc
:10112000ec80570003000100500498000000e0002c
:10113000220032006808900000004500600c980012
:101140008a8454004240a900ebff3c000810900044
:101150000028a3001b0032000b00e000190034003f
:101160008b04780009057800e28f540002003600f5
:101170002a002000020037000900e0000b003400c4
:1011800058009000c80190000a017800ee805700d6
:1011900003000100500498000000e0000700320046
:1011a0006808900000004500600c98008a84540094
:1011b0004240a90003003400eaff37000080eb0042
:1011c000010037000000eb004f0678004f05be001d
:1011d0004f04be000080fa00000006008f04b0003b
:1011e000889fbe008a9fbe008c9fbe008e1f780025
:1011f000f0b79f0081f79f005001be004000be0085
:10120000f0979f00819f9f00929f9f00a39f9f0048
:1012100010c6b3000ff19700804f51001600320046
:1012200010c4b300804f510013003200ffb197008b
:10123000530890000000e00003003d006000200023
:10124000d00998000c0037000000e0000a003a00c6
:1012500070c6b3000ff29700804f520003003200b7
:1012600070c4b300804f520003003a001000200009
:10127000ffb29700d00a9800ffb09700c0fa2f0085
:101280000f004000c702070080017800e20f500005
:1012900015003a0030002000ffb097009008980039
:1012a00010c6b3000ff19700804f51000a003200c2
:1012b00064404000804f5100070032000040e800c9
:1012c000804f51000400320041df20000040e80060
:1012d000804f510001003a0081df2000ffb19700ec
:1012e00063009000160037000000e0001800340092
:1012f000300020007fb29700100a980010c6b3009b
:101300008ff2970080cf52000a0032006440400004
:1013100080cf5200070032000040e80080cf52002a
:1013200004003200c1df20000040e80080cf5200fe
:1013300001003a0001e020007fb1970062009000b8
:10134000315878003158780011487800c6013700cc
:1013500014c6b3008ff2970084cf5200030032000e
:1013600010c4b30080cf520013003a007fb0970042
:10137000600190008200780000c3b30080587800bc
:10138000ffb29700e102980080c7b3008ff2970088
:1013900084cf52000100320080c5b300804878003d
:1013a0000280e800ffb09700e00098007100900014
:1013b0000080e800f00098000300e00005003a001b
:1013c000e3979f0064fb2f000f01420003077800a2
:1013d000a001370045e02000e5b79f0010c6b3002c
:1013e0008ff0970080cf50000500320010c4b3008a
:1013f00080cf5000a7003a0052e12000e2b79f00e2
:10140000ffb19700530890001e0220000000e0008a
:10141000010035000007e8000e02e800d4b79f0085
:101420006022b8006033b8007f9097008f989700d3
:101430001f999700af999700c6040700ffb0970067
:101440003102be002103be000000e00004003d00a8
:101450000400be000601be0003f0a2000200370037
:101460000400be000601be00f0979f00819f9f0010
:10147000929f9f00a39f9f006f919700640151006e
:10148000e2979f00c3fa2f008f8141006a804100dc
:101490000048eb006b824100c4b79f003100370069
:1014a000c201200003002000e5fa2f000f80420057
:1014b000680207007f9497008f9c97001f9d9700fc
:1014c000af9d97000800be000a01be00a6040700f9
:1014d0000006be005fb1970067015100d2b79f00c0
:1014e0004240a9000a003400cb0407000002be00fd
:1014f0000203be000800be000a01be00c9040700c6
:10150000f0979f00819f9f00929f9f00a39f9f0045
:10151000cfb19700678041007100200005003700bf
:101520006f6066004c6add004466de000c067200e7
:10153000c4eede00e00f5600e08f5e0005003400d0
:101540008100e900e18f4000f5ff3a00010037001b
:101550000060eb008100e900fdff3b0067004000f8
:10156000c0b79f00dfb297000500e000090034001b
:101570006022b8006033b8007f9097008f98970082
:101580001f999700af999700a80407000000e0009a
:10159000c3ff3c0060fb2f008f0040004fb197005d
:1015a000010051000000e9008e0f500001003d00d5
:1015b000000778000e00e00003003d0073fb2f00e1
:1015c0000f8141002c003700800f570005003d00bf
:1015d0000e80400010409000f3c0b300e74f500071
:1015e00001003c008041eb00c4fa2f000f024200d2
:1015f0000e0042006a0040008e00780001003700b3
:101600000000e9008100e90010417800834f51009b
:10161000fbff32000107e800efcf510001003a0064
:101620000248e8000100e0000300350075fb2f00d0
:101630000f814200060037000e07e8006f90970008
:1016400064004000e0979f0061fb2f000f81400085
:101650008e0041008e017800030037001100fb006e
:101660006fb29700e44878008301e9008100e90047
:101670000300e000f9ff3d00ffb29700550890001d
:101680000000e000f3003d000e00e900d00a9800e1
:10169000f00037007f9497008f9c97001f9d970064
:1016a000af9d97006022b8006033b8000800be000c
:1016b0000a01be00270407000000e00005003d000d
:1016c0000bf0a200f8979f00899f9f009a9f9f00b0
:1016d000ab9f9f006f909700725927000280b9005e
:1016e000026a28001300200055040700e40050009f
:1016f000e1979f0015003b00e3801000c0ff2f0022
:10170000008460000800ea00e0979f007f90970047
:101710008f9897001f999700af999700c9da20001a
:10172000070037000808a300030032003902be009a
:101730002903be00510407000884d100e884440056
:101740000800e000f7ff3c001b0037000100e0004c
:101750001d003400c0ff2f0000806000e0979f0054
:10176000000478006000b8000200200003ff23009e
:10177000c9da2000070037000808a3000300320080
:101780003902be002903be003c0407000884d100d2
:10179000e88444000800e000f7ff3c000002be00bf
:1017a0000203be007f9097008f9897001f999700c3
:1017b000af999700a6040700f0979f00819f9f00b4
:1017c000929f9f00a39f9f00ffb097005109900038
:1017d00060c6b3008ff1970080cf51000400320043
:1017e0006100200060c4b30080cf510002003a00c5
:1017f0006f929700ea00420001074100f30f570083
:10180000010034003e01200000c3b300e0779f00d8
:1018100075fb2f008f824200b5b79f003300370061
:101820000800be000a01be00cf0307000006be008c
:10183000680757004240a9000e003400f603070075
:101840000002be000203be000800be000a01be0086
:10185000f40307006022b80046782d0077192400b1
:1018600006040700f0979f00819f9f00929f9f00b2
:10187000a39f9f003fb097006804400089002000ac
:101880000d003700a4002000050020000c01be0060
:10189000e0fd2f000f004000e70107007fa8970040
:1018a0008fb097001fb19700afb1970004c3b3008a
:1018b000046441000006be00e00f5600e08f5e00a9
:1018c000060034008904e900e18f4400edff3a008e
:1018d0000200370000c3b300006478008904e90007
:1018e000fcff3b0068044400b8b79f000e00e00016
:1018f0000b0034007f9497008f9c97001f9d9700ea
:10190000af9d97006022b8006033b8000800be00a9
:101910000a01be00c50307000000e000c0ff3c0054
:10192000c5fa2f008f8242006a804200bfb0970044
:10193000008050008001e9006f919700e7004100ae
:101940006b814200010037000201e80000c3b300d0
:10195000924f1000fcff320074fb2f000f0042007a
:1019600080804000828050000080410002025000d0
:10197000e1979f00ffb29700d509900060c6b300c1
:101980008ff2970080cf52000300320060c4b30092
:1019900080cf520002003a008100e8000a003700c0
:1019a00050c6b3008ff0970080cf50000500320082
:1019b0008000eb0050c4b3008ff2970080cf52003c
:1019c00001003a0011002000018741008e0f5200f3
:1019d00001003d00040778000e00e0001d00350006
:1019e000840f570005003d00e2407f0095c3b3001f
:1019f00040c3b30080cf500001003c0005c3b300da
:101a00000e0041008000e9008e01780001003700df
:101a10008100e9008301e90011427800854f5200fe
:101a2000fbff32000307e80090c3b30080cf5200f1
:101a300001003a008448e8000300e00005003d0092
:101a40000201e9000e07e8006f9097000000e8002f
:101a5000e0979f006f9297008e0178008ff09700bb
:101a60007fb09700910107004f0778004f06be0036
:101a70004f05be004f04be008f04b10000000600f9
:101a8000ef02b000889fbe008a9fbe008c9fbe0000
:101a90008e1f78000006780070e32000c0b79f001a
:101aa00080c5b30080cf50000800320062e2200001
:101ab000c2b79f007740400080cf500003003a003b
:101ac00083002000b3b79f000a00370080c7b3002f
:101ad00080cf500005003200a4002000b4b79f0062
:101ae00080c5b30080cf500002003a000001200002
:101af000b0b79f003c04be002c05be0040c6b3003a
:101b000080cf5000030032006540400080cf50007d
:101b10000b003a00e00f5400e08f5c00e00f5d0026
:101b2000e08f5d0006003d006000b8006011b80065
:101b300008045000898458000a0559008b85590013
:101b4000e00f5400e08f5c00e00f5d00e08f5d006f
:101b500004003a005c0890008d0120000000e000c5
:101b60000c003200bfb0970001027800cfa2de0067
:101b700005037800860378000800be000a01be0055
:101b80008e0407004fb2970064407800d0df9f00ba
:101b90007d0120003fb0970000027800cfa2de0058
:101ba00005037800860378000800be000a01be0025
:101bb0007b040700009ebe000296be000d00e900f7
:101bc00061fc2f008f804000008740001e0037001e
:101bd0003fb1970002047800cfc4de000905780009
:101be0008a0578000802be000a03be007fa897009d
:101bf0008fb097001fb19700afb197007304070033
:101c0000d0b79f00e1b79f00f2b79f0083bf9f004e
:101c10008d06e9000802be000a03be00f1040700b9
:101c20007faa970000005200cfb09700615778005c
:101c30005fb09700efb097007fb197008fb9970022
:101c4000009ebe000296be003c00be002c01be00fd
:101c5000f0af9f0081b79f0092b79f00a3b79f008e
:101c6000e00f5000e08f5800e00f5900e08f59005e
:101c7000020034000d00e000d5ff3c00bfb097002b
:101c8000e88f500010003a000c1090000038a300bc
:101c90000d003200f78f560006003e0062fc2f0058
:101ca0000f0141008d00410000c3b300914f1000af
:101cb000050032008d06e90000c3b30063fc2f006d
:101cc0008f81410080f17e0078811600120e98000d
:101cd0006c00900063fc2f008f8141008d804100db
:101ce00029fa07001c0990005c089000800f510041
:101cf00006003d0002005000000e98000c109000fd
:101d00000040a100001698000f0037000000e0001e
:101d10000d003d000c10900074006000f00f5000aa
:101d200009003a007c089000fc009000010050007f
:101d30008c08900001005000020050004240a900b1
:101d400001003400000e98004f0778004f06be00d7
:101d50004f05be004f04be00ef02b10000000600b8
:101d600080007800010037000000e8001004e00067
:101d7000fdff3a0001005000000006008001eb006a
:101d8000040037008301e80090cf10000400320007
:101d90000000e800828f5100faff3a000000eb00db
:101da00000000600889fbe00800478006684400022
:101db00000ff2700180060004401de00f07f2000d3
:101dc000800f51000e003a00800ceb0018047800e0
:101dd0006f0064001c003a00210090000000e00049
:101de00019003a00110090000000e00016003a00cf
:101df000100020001100e000140032001200370033
:101e00000200e00005003c0001007800db01070053
:101e1000000178000000e00008003c00f00028000d
:101e20001800600001fe2300010c700020c02f008c
:101e3000800c41000080eb0004003700800ceb00b8
:101e40000000eb0001003700200020004f04be001e
:101e500000000600889fbe008a1f78008c9fbe008d
:101e6000000478000206be00e60440001901780074
:101e70000200d0004505de008a007800f07f2000d7
:101e8000800f55000c003a006f00610065003a00b9
:101e9000280090000000e00062003a001800900066
:101ea0000000e0005f003a00100020001800e00091
:101eb0005d0032005b0037000a00e00007003a00d6
:101ec00008007800ad010700800078000000e00005
:101ed000020034000a007800530037006108b9009e
:101ee0000c0140008d814800e07f2000800f5100f0
:101ef000e08f59000d0034001900e00004003d009f
:101f00006000b8000200200003ff2f00030037002c
:101f10006000b8000200200003ff2700009cbe0004
:101f20000294be00100020003f003700e00f510077
:101f3000e08f590005003400f0002800190060000f
:101f4000c410dd00810c70003400370019007800e7
:101f500001002800010360006f0060000040a00045
:101f6000800c780061015100e0815900c0fc2f0015
:101f7000f1ff2f00800f5100818f59000d003d00af
:101f8000860c78000000eb002004980010049800f4
:101f9000000c7800240037008880e800110c7800dd
:101fa000640044009008780019087800800ceb0069
:101fb00070014100f00f4100f7ff34008202ea0097
:101fc000150032008881e8007082120098007800c5
:101fd0008508de00130078000400dd00008c70002e
:101fe00064014400930078008508de001200780048
:101ff0000400dd0080897000920078008508de0012
:10200000190078000400dd000089700019007800d4
:102010000500de00800c7800990c73000080eb0056
:1020200001003700200020004f06be004f05780059
:102030004f04be00000006000400fa00889fbe00a6
:102040008a9fbe008c1f78000006780092bf9f0018
:10205000a3bf9f000404be000401be001fb8970088
:10206000afb89700f60107000005be000001be00f2
:102070000800be00090407001fb99700afb9970018
:102080000000510081805900200698003106980018
:102090000a8ebe000c0078004f0678004f05be0087
:1020a0004f04be000080fa00000006000e00fa0097
:1020b000889fbe008a9fbe008c9fbe0000047800ef
:1020c00001457800020678008304780084067800d1
:1020d0000300e00002003c00190020004ce6200054
:1020e00060c6b300804f55000e00320060c4b300dc
:1020f000804f55000b00320070c6b300804f550072
:102100000300320070c4b300804f55009c003a00b9
:10211000e48f46008000350058089000808f5600fc
:102120007d003d008d05e80060c6b300804f55007e
:102130001000320060c4b300804f55000d00320023
:10214000081090000038a30004003a0058089000de
:10215000808f540001003d00590c980058089000f1
:102160000b005000500c980002003b000000eb00f8
:10217000500c98000b00e00027003c00180990006c
:102180006800900001c3b300017079008201e8008b
:10219000130c9800580890000000e00003003c0079
:1021a000081090000038a30005003200680090007d
:1021b000e1c2b30001f079000280e800100c980041
:1021c000d80890000b00ea00808f500001003d000d
:1021d0008105ea000b00ea00200c98000180450010
:1021e000500c9800890f500001003d0080047800d9
:1021f000390c980068009000980890000100400099
:10220000090178008c007800dff80700580890007a
:10221000090050001a0037009808900068009000ec
:102220008b8f540018003d00010040000901780028
:102230008c007800d4f80700180890000081440052
:10224000120c980009805500200c98005808900046
:102250000000e00003003c00081090000038a300dc
:1022600006003200e8009000e0c2b3008070790000
:10227000380890000000e800300c980058089000e2
:10228000400c9800a6003700010040000b017800c8
:102290008c007800bcf80700180890000081450009
:1022a000120c98008b845400580890000000e00045
:1022b00003003c00081090000038a3000500320025
:1022c00068009000e1c2b300017079000200e800ec
:1022d000100c980058089000890f500001003d0034
:1022e0008004780068009000980890000100400089
:1022f0008b00460009017800a3f807001808900039
:1023000000804400100c980058089000090050000c
:10231000200c98008200370070c6b300804f550033
:102320000300320070c4b300804f550014003a001f
:1023300058089000808f540004003d000810900061
:102340000038a30001003a00590c9800580890008a
:102350000000e900500c980002003b000000eb0078
:10236000500c980070c6b300804f550002003a0030
:102370005ac6b3000b0037005ac4b3000900370037
:1023800010c6b300804f550002003a000ac7b300e0
:102390000400370010c4b300804f550001003a001c
:1023a0000ac5b30018099000680090003c707900dd
:1023b0008201e800130c98000c0278005808900085
:1023c0000000e00003003c00081090000038a3006b
:1023d00017003200e8009000e0c2b30080f07900fe
:1023e0008280e800110c9800580890000000e0007e
:1023f0000f0034008904e900890f500001003d00fe
:102400008004780068009000008040000901780096
:10241000840078005cf807001808900000804400f1
:10242000100c98005808900009005000200c9800eb
:102430006800900098089000010040000086e800c5
:102440000a587800800078000d00e0000400350094
:10245000b0c2b300804878008c04780004003700d4
:10246000d0c2b300804878008c0478008d06ea0062
:102470008005eb000a003700a20020008d007800e4
:1024800070805700890007000fb897009fb8970029
:102490007a81550001f17f008b05e8008006780005
:1024a0000d00e000f4ff3c00e18f550009003c0006
:1024b00050c6b300804f55000300320050c4b30033
:1024c000804f550003003a0000c3b300005e78005f
:1024d0008c0478000b00e000040032000b00e900df
:1024e000fa805700008040000600370000c3b300a8
:1024f000805c7800050037008b05e90002c3b3005b
:10250000a05c41000b00e000fbff3c006800900075
:10251000980890000100400000805400300c9800a2
:102520000810900074006000f00f50000e003a0098
:10253000780090009808900001004000a8089000e2
:1025400001004000b808900001004000c808900059
:102550008100400078089000808f500002003d000c
:1025600001005000000c98004f06be004f05be0051
:102570004f04be000080fa00000006000002780050
:10258000e602400015007800010028008103600089
:102590006f006000800a780012003a00240090006a
:1025a0000000e0000f003a00140090000000e0007e
:1025b0000c003a00160020001400e0003800320041
:1025c00008003700e4004200910a78000480e80027
:1025d0009008780014087800000aeb00700353009c
:1025e00001003700160020001500e000f5ff320062
:1025f00013003700640142008000400012007800a0
:102600004f00de00808a70008481e800920078002c
:1026100081804000130078004f00de0000897000c8
:102620009300780081804000140078004f00de00a5
:102630008089700014007800000a40000603e90059
:1026400015007800ef0f5000eaff36001000370049
:102650000481e8009400d100120078004f00dd00f2
:10266000008a7000e40042009201d100110078005d
:102670004f00dd00008971001101d10015007800c4
:102680004f00dd0080087100950ad1000603e800c4
:1026900015007800ff0f5000edff3e00ef0a6000cc
:1026a000958a730006007800000006000202780098
:1026b000809fbe00110009008200d8000001780050
:1026c0004f00be0002a2b9008480500011009800a3
:1026d00002087800000006008103780075020700f8
:1026e0000001be006000b8000478a30013003a00a7
:1026f0006220e10015003e000d0039008301d10089
:102700000281d3008180d3008301d1000281d300f4
:102710008180d3008301d1000281d3008180d30066
:102720000538b000c42add00f300b20083817200d6
:1027300007f0a70003f0a00000000600f3ff270049
:10274000f2ff2f006110b900fbff370003ff2700e5
:10275000f7ff37008f1fd1006b0207008f87e9005a
:102760000000e000000006001400fa00889fbe0090
:102770008a9fbe008c9fbe000004be000205be0002
:10278000680047000a90be000890be00870207005c
:102790000070a7000bf0a100304320009e029000c3
:1027a00080825200b0fe2f000028e10011003d00a1
:1027b000b0fc2f000028e100150034001e09900035
:1027c0008e0890007e0090000501b0000201d1004b
:1027d0008180d3000080d3008502e800fbff3a002f
:1027e0000b00e000ac023b0060001000e08018002d
:1027f000a9023700f0ff2f00f1ff27000b00e000d7
:10280000a5023b000100280000002000a2023700c2
:102810006000b800a00237004f89de008201780016
:10282000a202370007f0a200d7023700809feb001a
:10283000350207008f87e9000000e0000000060075
:10284000839f68000100e00002003d00600010006e
:10285000e08018000300e00002003d00600111006c
:10286000e0811900450307004f00e00002003b0033
:1028700060001000e0801800000006002800fa0048
:10288000889fbe008a9fbe008c9fbe0003866b009f
:102890006d0207000028a30064003a000128a3008d
:1028a00067003a000008a30062003a000108a30094
:1028b00065003a001e009000be08900081064000ae
:1028c000ed3fb100f4805700ee019000111ab800fe
:1028d0008e099000311bb8009e099000311cb80091
:1028e000511db800f485570046000700fe01900016
:1028f0003a0007008b85e8003e0007008e09900033
:1029000040000700ee019000340007008b85e800ce
:10291000380007008e099000400007009e099000d3
:102920001b18b800890440000a854800fe01900089
:10293000340007008b85e80038000700ee019000a6
:10294000300007008e0990001b18b8008904400071
:102950000a8548000a98a30008003a0004024200d1
:1029600085824a0006034b0087834b0008044c0015
:1029700089844c000a054d008d06e90084827200ae
:10298000850273004c3add008502720001003200be
:1029900015002000443ade001400b2004538de0085
:1029a000cb45dd000b007000c540de00cb4ddd00e7
:1029b0008b8070004549de00cb55dd000b017100b6
:1029c000c551de000d037800fc02070003f0a100f2
:1029d0000cf0a70003f0a0002f0237001b18b8006e
:1029e0008502400006834800e0834b0060044c00f1
:1029f000070037001b18b800060340008783480013
:102a0000faff37001b18b80087034000088448000d
:102a1000e0844c0060054d00000006001b18b80063
:102a20000804400089844800faff37000108a30029
:102a300016023a005800be005801be00e3ff3700fe
:102a40000008a30011023a0009047800f9ff3700da
:102a50002800fa00889fbe008a9fbe008c9fbe009f
:102a600003866b00f80107006400e10044003200b7
:102a70006408e1004a0032006100e10046003200d3
:102a80006108e10049003200ec0647006000b80030
:102a90003d02be003d03be00f48657006011b80041
:102aa0003d04be003d05be007d0320000b00370045
:102ab0000000a0008d06e90013003200040242006d
:102ac00085824a0006034b0087834b0000004000cc
:102ad00081804800020149008381490008025200b8
:102ae00089825a000a035b008b835b00f0ff3b0086
:102af0000802420089824a000a034b008b834b0084
:102b00008d06e900edff3a00848272008682720031
:102b1000f707b20087827200010032001500200022
:102b20001e0490003e0b900006035400e63fb000e8
:102b30000368a300070032000000a7000500a00002
:102b40008301d1000281d3008180d3000080d300b3
:102b50000603e8008301d1000281d3008180d30005
:102b60000080d3000002eb000482d2009302070031
:102b700003f0a1000cf0a70003f0a000c60137008d
:102b8000640247006408e100c00132003400be0066
:102b90003401be00f6ff37006108e100bb013200de
:102ba0006011b8006000b800f1ff370003ff270094
:102bb00002002000fbff3700881f78000004780027
:102bc0005001be004000be00040040008580480067
:102bd0000601490087814900009cbe000294be00a6
:102be0000400e1000588e1000690e1000798e1009b
:102bf00002003100680044001008e8004f0478002b
:102c000000000600f4874700889fbe008a9fbe0030
:102c10008c9fbe008e1f78000205be000004be001f
:102c2000d4b79f00e5b79f00f6b79f0087bf9f000e
:102c30000000eb00c0b79f00b0b79f00a0b79f0097
:102c400090b79f0080b79f000d042000bfb0970091
:102c50004fb09700000140000000e0000f003d0071
:102c60004f08de0000007100c0b79f009e00070003
:102c700001003d0012002000a100070001003d00fe
:102c800012002000a6000700b1000700b6000700f0
:102c90000f004000c8ff0700220037004f08de0089
:102ca00000067100ccb79f008f00070001003d00b7
:102cb000120020009200070001003d0012002000d9
:102cc00097000700a20007000fb297009fb297007d
:102cd0002fb39700bfb39700a90007000000520070
:102ce00081805a0002015b0083815b0080b79f00f6
:102cf00091b79f00a2b79f00b3b79f000007eb00fa
:102d00009f0007000020e10001a8e10002b0e100ff
:102d100003b8e100010031001e0020000e00560043
:102d2000c0b79f004fb297000400e00007003500d5
:102d300010002000010020006011b800080470009d
:102d4000898470000a0571008b8571008d06e90089
:102d5000beff3a000400e00003003d0082000700cf
:102d60000f00400094ff07004fa897000000e0000c
:102d700004003a000fb497009fb497002fb5970056
:102d8000bfb59700940007004f0778004f06be00bc
:102d90004f05be004f04be004f01b1000000060009
:102da000881f780018002000881f780095ff070012
:102db0008f87e9004f04780000000600801feb00b9
:102dc00090ff07008f87e90000000600889fbe0083
:102dd0008a9fbe008c1f78006e00070007003d0030
:102de00073000700e00f5b00e08f5b0007003d0011
:102df000320007000006eb00040037003400070033
:102e000002003d002a0007001c002000720007009d
:102e1000e3ff07000203be000002be000c00e0005a
:102e200001003200220007000400be000601be00bf
:102e30004f0678004f05be004f04be00000006009c
:102e4000889fbe008a9fbe008c1f7800510007003b
:102e500005003d0056000700e00f5b00e08f5b00bf
:102e600006003d00040037001900070003003d0084
:102e70006000b8006011b80010000700560007009d
:102e8000ceff07000203be000002be000c00e000ff
:102e900001003200060007000400be000601be006b
:102ea0004f0678004f05be004f04be00000006002c
:102eb0006000b8006011b800000037000402500044
:102ec00085825800060359008783590000000600d8
:102ed0000006eb00e00f5200e08f5a00e00f5b00ad
:102ee000e08f5b00000006000180400090b79f006b
:102ef0000001eb008fb097000100e0000000060029
:102f00000200700090b79f000180400080b79f00d2
:102f10000001eb00ffa897000100e00000000600a0
:102f20000200700080b79f00018040006faa9700e8
:102f3000cf20de0001007000f0af9f0004024200cd
:102f4000250007004f18de00000272000000060096
:102f5000e4af9f000804440089844c000a054d003a
:102f60008b854d00000006003fb29700cfb297005e
:102f70005fb39700efb3970000fe2f00000006003c
:102f80003fb09700cfb097005fb19700efb19700c7
:102f9000000006000205be000004be00e00f500065
:102fa000e08f5800e00f5900e08f59000000060044
:102fb0006000b8006011b80008045000898458000f
:102fc0000a0559008b8559001c002000e00f5200b3
:102fd000e08f5a00000006000800be000a01be0093
:102fe00000000600889fbe008a9fbe008c1f7800ec
:102ff0000205be000004be000006eb00e00f50001a
:10300000e08f5800e00f5900e08f590007003d00a5
:103010006000b8006011b8000804500089845800ae
:103020000a0559008b8559001c002000e00f520052
:10303000e08f5a00e00f5b00e08f5b0002003d0074
:103040000f0007000c00a2000800be000a01be002d
:10305000860107000203be000002be000c00e00073
:1030600001003200060007000400be000601be0099
:103070004f0678004f05be004f04be00000006005a
:103080006000b8006011b80004025000858258004a
:10309000060359008783590000000600020ab900a0
:1030a000001bb9000200b80081004200810043000b
:1030b00000000600c70ade00f107b200f50fb200fb
:1030c00008003200e1cf4200020032000170a0008f
:1030d00024000500810f7000010032000408050083
:1030e00044000500810f700002003a001400050042
:1030f0008502e9000000400081c04800fcff3b0061
:103100000170a00024000500889fbe008a9fbe00b9
:103110008c9fbe000404be000605be00809fbe005a
:10312000829fbe0073010700040678000800be00fd
:103130000a01be006f010700840678004f03be003d
:103140004f02be008d4f76007fb097001300330012
:10315000f0ff2f008b8f6b0006003b000d06660012
:103160000c00a7000a00370007f0a600100020009e
:103170000a003700880f5200898f5a008a0f5b00bf
:103180008b8f5b00030039001000200001003e001f
:103190000000200007f0a7000000ea004f06be0074
:1031a0004f05be004f04be000000060080007800fe
:1031b0005002be005003be004439de00f700b200ea
:1031c000f37f200003016100090032000218e100d2
:1031d00016003a0085017200830173008381730039
:1031e0000008200015003a004000200013003700be
:1031f00085017200830173008381730005003a002a
:1032000004a8be0006a8be00100020000b00370076
:103210000201e9000402420085824a0006034b00d5
:1032200087834b000748a300f9ff32000740a00046
:1032300004a8be0006a8be00200020008000980060
:103240009200980000000600680447000294be0047
:103250000094be00fc0447008694be008494be0027
:1032600009007800d1ff070008007800cfff0700b1
:1032700099007800814f70000b003b000800be00f1
:103280002e0107004f00b10003003700f3ff2700b5
:10329000f2ff2f006110b9004f06be004f05be00bf
:1032a0004f04be000080fa0000000600889fbe00a8
:1032b000830478000300e0002c00350003003c008c
:1032c00000827000040271002600320036432000a4
:1032d000c50020008383cf000a0039000541b100fa
:1032e0008283cf00070039000541b1008183cf0000
:1032f000040039000541b1008083cf00010039008e
:103300000541b10085c353006022b80012003200ad
:103310000a003b0084827200610260008301d100d8
:103320000281d3008180d3000080d3000603e8002f
:103330008743e800f7ff3a0007003700000040002d
:103340008180480002014900838149000603e900a9
:103350008743e900f9ff3a009800070009f0a70049
:1033600003f0a0004f04be00000006006000100043
:10337000e080180060011900e0811900d3ff3b00d4
:10338000033e2c00f7ff37002800fa00889fbe009c
:103390008a9fbe008c9fbe00070678008786690062
:1033a0000c003b00030478008704780008f0a100bb
:1033b00009f0a100840f5000858f5800860f590036
:1033c000890f5c00030033000cf0a20001003a00fa
:1033d0000cf0a1009cff07006400e1005f003200d8
:1033e000780147006408e100610032006c01470089
:1033f000748557003200be001201be003a04be00c0
:103400001a05be001e039000be0a900085035300fb
:1034100006003d000004fd008104fd000205fd00e2
:103420008305fd008703ea00050378000df8a3007b
:103430000400320060041400e0841c0060051d00dc
:10344000e0851d006022b8007d0320000d38e100fa
:103450008006eb000b0039004433dd00f300b200be
:103460008301730039003700848272000d027800f6
:10347000e10664008b85d1000a85d3008984d300de
:103480000884d3008703e900f7ff3b0008004000f1
:10349000898048000a0149008b81490004003b00f3
:1034a00060001000e080180060011900e081190040
:1034b0000358a300090032008d82720084827200da
:1034c000610260008301d1000281d3008180d300ba
:1034d0000080d3000603e8001b0037000348a30068
:1034e00017003a000600e000170034000603e90068
:1034f0000d00a3000000480081804800020149003f
:10350000838149000348a3000f003a000600e00051
:10351000090034000603e9000000400081804800f3
:10352000020149008381490001003a000003eb00d9
:103530000348a300f5ff32006022b8000200370004
:1035400084827200618266001c00070003f0a10003
:103550000cf0a70003f0a0004fff37006401470004
:103560006408e10002003a000df8a30047ff3a00aa
:103570003200be001201be0047ff37006022b800d3
:10358000060220000000d0008180d2000482d20018
:103590008582d2000000a0000202520083825a00fd
:1035a000030031000202420083824a000000a100b1
:1035b0000603e900f3ff3a000000060018002000af
:1035c00057002000080453000d003d0006002000b5
:1035d00097fc2f000740e1001e0034008482720037
:1035e000610260008301d1000281d3008180d30099
:1035f0000080d3000804e800f8ff3a0047002000ec
:103600006104600005047400040464000d003200cd
:1036100061004000e080480060014900e08149000d
:1036200003b8a500070032000603e8006538e10092
:1036300004003a008301d1000281d3008180d300cd
:103640000080d300f87f20000830e100030035003f
:10365000080378006000b8006011b8004433dd0052
:10366000f300b2008301730000000600889fbe00d3
:103670008a9fbe008c9fbe000404b8000506b800f7
:103680008904460060854e000606b8000a0546001b
:10369000e0854e000706b8008b054600040eb80012
:1036a000890446000a854e00e0854d00050eb800ed
:1036b0000a0546008b854e00060eb8008b054600b5
:1036c0000416b8000a0546008b854e000516b800a2
:1036d0008b054600041eb8008b0546000800be009e
:1036e0000a01be004f06be004f05be004f04be00db
:1036f0000000060005ff2700058261000700320078
:103700000428e10001003200240005000600070043
:1037100001003a004400050004080500020007000b
:10372000f9ff3a00140005006f8261008102700009
:10373000850271008502720000000600e4824000ec
:103740001078a30007003200640240001178a30043
:103750003400be001401be00040032000330a70094
:10376000000006003500be001501be000330a000b9
:10377000000006008000780030c2bf006640600094
:10378000e64f500001003200f10fb200a111880095
:103790000000060033c2bf000004a2006100600008
:1037a0000000060023c2bf000004a2006100600008
:1037b00000000600800078000001780030c2bf00e1
:1037c00066406000e64f500010003a0005003700e8
:1037d00033c2bf000018a300fdff3a00a211880009
:1037e0008180e800110178000200e000f8ff3a0053
:1037f0000000060033c2bf000018a300fdff3a001e
:103800000100fb00a01188000201e800924078004e
:103810000104e000f7ff3a00000006008000780095
:103820000001780020c2bf0066406000e64f5000f3
:1038300010003a000500370023c2bf000018a300a3
:10384000fdff3a00221188008180e8001101780014
:103850000200e000f8ff3a000000060023c2bf00ab
:103860000018a300fdff3a000100fb0020118800b2
:103870000201e800924078000104e000f7ff3a00fe
:10388000000006008460a900e7416000c419dd0063
:10389000510a200091407800f2c8b30082c0600055
:1038a00083c070008000fd00a5e0b7008000fd002f
:1038b000680060004300de004300dd004109200095
:1038c000914078000134a10080c0700001007800b0
:0838d00094e0b70000000600bf
:020000040000fa
:0200000401f009
:04000400ffff0000fa
:020000040000fa
:0200000401f009
:04000800ffff0000f6
:020000040000fa
:0200000401f009
:04000c007bff000076
:020000040000fa
:0200000401f009
:04001000bdff000030
:020000040000fa
:0200000401f009
:040014007fff00006a
:020000040000fa
:0200000401f009
:04001800f8ff0000ed
:020000040000fa
:100008004025000040250000402500004025000054
:100018004025000040250000402500004025000044
:100028004025000040250000402500004025000034
:100038004025000040250000402500004025000024
:100048004025000040250000402500004025000014
:100058004025000040250000402500004025000004
:1000680040250000402500004025000040250000f4
:1000780040250000402500004025000040250000e4
:1000880040250000402500004025000040250000d4
:1000980040250000402500004621000040250000c2
:1000a80040250000402500004025000040250000b4
:1000b80040250000402500004025000040250000a4
:1000c8004025000040250000402500004025000094
:1000d8004025000040250000402500004025000084
:1000e8004025000040250000402500004025000074
:1000f8004025000040250000402500004025000064
:100108004025000040250000402500004025000053
:100118004025000040250000402500004025000043
:100128004025000040250000402500004025000033
:100138004025000040250000402500004025000023
:100148004025000040250000402500004025000013
:100158004025000040250000402500004025000003
:1001680040250000402500004025000040250000f3
:1001780040250000402500004025000040250000e3
:1001880040250000402500004025000040250000d3
:1001980040250000402500004025000040250000c3
:1001a80040250000402500004025000040250000b3
:1001b80040250000402500004025000040250000a3
:1001c8004025000040250000402500004025000093
:1001d8004025000040250000402500004025000083
:1001e8004025000040250000402500004025000073
:0801f800402500004025000035
:020000040000fa
:100208004025000040250000402500004025000052
:100218004025000040250000402500004025000042
:100228004025000040250000402500004025000032
:100238004025000040250000402500004025000022
:100248004025000040250000402500004025000012
:100258004025000040250000402500004025000002
:1002680040250000402500004025000040250000f2
:1002780040250000402500004025000040250000e2
:1002880040250000402500004025000040250000d2
:1002980040250000402500004621000040250000c0
:1002a80040250000402500004025000040250000b2
:1002b80040250000402500004025000040250000a2
:1002c8004025000040250000402500004025000092
:1002d8004025000040250000402500004025000082
:1002e8004025000040250000402500004025000072
:1002f8004025000040250000402500004025000062
:100308004025000040250000402500004025000051
:100318004025000040250000402500004025000041
:100328004025000040250000402500004025000031
:100338004025000040250000402500004025000021
:100348004025000040250000402500004025000011
:100358004025000040250000402500004025000001
:1003680040250000402500004025000040250000f1
:1003780040250000402500004025000040250000e1
:1003880040250000402500004025000040250000d1
:1003980040250000402500004025000040250000c1
:1003a80040250000402500004025000040250000b1
:1003b80040250000402500004025000040250000a1
:1003c8004025000040250000402500004025000091
:1003d8004025000040250000402500004025000081
:1003e8004025000040250000402500004025000071
:0803f800402500004025000033
:020000040000fa
:1038d8000a0d0000756e000072650000636f00003d
:1038e800676e0000697a000065640000204d0000e2
:1038f80065730000736100006765000020490000df
:10390800443a000020250000640000000a0d000071
:103918003d3d00003d3d00003d3d00003d3d0000b7
:103928003d3d00003d200000436800006563000045
:103938006b730000756d000020460000616900008f
:103948006c65000064210000000a00000d200000e2
:103958004d6500007373000061670000652000007a
:10396800494400003a200000256400002c20000093
:103978004c6500006e670000746800003a20000083
:1039880025640000000a00000d2500006c75000089
:1039980009250000640900002564000009250000cd
:1039a800640000007561000072740000312000009e
:1039b800696e000069740000696100006c690000ac
:1039c8007a65000064200000696e00002075000020
:1039d80061720000744900006e69000074280000dc
:1039e800290a00000d000000257500003a000000bb
:1039f8002530000032580000003a0000257500000c
:083a08000a0d0000000000009f
:020000040000fa
:103a10000000fa00889fbe0000047800e304400024
:103a20009940780066c04000880078007300070065
:103a30000004e00062003200284090008080fb001b
:103a4000ea4f50004f003a004840900079edb7002f
:103a50005840900078edb7006840900077edb700cf
:103a60007840900076edb700084890007bedb700f5
:103a7000184890007aedb700284890007dedb70017
:103a8000384890007cedb700484890007fedb700c3
:103a9000584890007eedb7006848900081edb7006f
:103aa0007848900080edb7000850900083edb70093
:103ab0001850900082edb7002850900085edb700b7
:103ac0003850900084edb7004850900087edb70063
:103ad0005850900086edb7006850900089edb7000f
:103ae0007850900088edb700085890008bedb70033
:103af000185890008aedb700285890008fedb70055
:103b0000385890008eedb700485890008dedb70002
:103b1000585890008cedb7006858900093edb700ae
:103b20007858900092edb7000860900091edb700d2
:103b30001860900090edb7002860900097edb700f6
:103b40003860900096edb7004860900095edb700a2
:103b50005860900094edb700686090009bedb7004e
:103b6000786090009aedb7000868900099edb70072
:103b70001868900098edb700286890009cedb70099
:103b800005003700811f7800c1c62900811f780019
:103b900056030700e48757008f02b00080fd2f0016
:103ba0000084470060d7200013000900301c780013
:103bb0008802b10030000700880778000c00370049
:103bc000a1c82900811f7800480307001980fb0065
:103bd000801f7800284090000080fb00801f780044
:103be00090ca2900801f780040030700e88757002b
:103bf0004f04be000080fa00000006000043780079
:103c00000080fb000082e900e20f520003003c004c
:103c10008041eb00834278000b00370022c0b300e4
:103c20008042eb00854178000280fb0060c0780094
:103c300080c1410083c242000241e8000280fb00d3
:103c4000840f5000f8ff35000680fb008100400023
:103c500061f89700834f500004003a0071f8970014
:103c60001100200080cf5200010032008000eb00e4
:103c70000180fb00000006000000fa0020fd2f007c
:103c800000804700f0009000811f780060019000e4
:103c9000821f7800d0019000831f78001001be00c1
:103ca000829fbe0073cc2900831f78000f0307009a
:103cb000ec8757000080fa0000000600808c20008e
:103cc00080568800e501070000000600889fbe00be
:103cd0008a9fbe008c1f7800000478001004e0006a
:103ce0009700320019c0b3000980fb00e0407c005f
:103cf00080568000270207008944e80018407800b9
:103d0000894f5000f8ff31000004e0008c003200c1
:103d10008044eb00894578002a802000a84de2000d
:103d200046003a0043003700805680000302070037
:103d300080568000df010700e30f500005003600c9
:103d400080568000ef01070011c8b300814f50007a
:103d5000f5ff3a0080568000d6010700e30f5000bf
:103d60003900360080568000e601070011c8b30014
:103d7000814f500034003a00188020001844780029
:103d800080568000ed0107008880fb002c80200019
:103d900080707e000844e8000800780001e8b70061
:103da00080568000d701070011cab300814f500030
:103db000dfff3a0019802000994478008056800087
:103dc000de0107008980fb0080707e000944e80066
:103dd0000800780001e8b70080568000d70107008e
:103de0000884fb0000747e0009c4e8000800780025
:103df00001e8b70080568000d00107000884fb006e
:103e000000747e00e3c444000900780001e8b700b4
:103e10008984fb008904e90069407e0000e8b7005e
:103e20000b007800a8edb70019c0b3000b40780074
:103e30003c0037000040eb003a0037000904e00086
:103e4000fcff3a00baff37008044eb0010c0b3001b
:103e50003400370018802000184478008056800015
:103e6000b60107008880fb0080707d000844e800f0
:103e70000800780001e8b7000048ed0000e8b7004e
:103e800006003200805680008a010700e20f5000d1
:103e9000f0ff3e000048e20021003a00805680001a
:103ea00084010700e10f50001d003600198020003a
:103eb0009944780080568000a00107008980fb00ab
:103ec00080707d000944e8000800780001e8b70030
:103ed00080568000990107000884fb0000747d0073
:103ee00089c4e8000900780001e8b7000a007800fa
:103ef000c7fe070010c0b300a8edb7000b007800a4
:103f000001e8b700620c20008000eb000a00780096
:103f100081f107008b4478000b40780001003700e6
:103f200010c0b3000048e200030032000004e000cb
:103f3000d4ff3200020037000004e00077ff3200b7
:103f40004f0678004f05be004f04be00000006007b
:020000040000fa
:103f5000dc0c00009a0000000200000081a1630058
:103f6000040131000655ff00ff81a1002303050075
:103f70000100ff00ff81a100230305000200ff00f4
:103f8000ff81a100230305000300ff00ff81a100c2
:103f9000230305000f00ff00ff81a100230305009c
:103fa0001400ff00ff81a100230305001500ff009e
:103fb000ff81a100230305001600ff00ff81a1007f
:103fc000230305001700ff00ff81a1002303050064
:103fd0001900ff00ff81a100230305001a00ff0064
:103fe000ff81a100230305001b00ff00ff81a1004a
:103ff000230305000a01ff00ff81a1002303050040
:104000000c01ff00ff00e6000cef0c00f80c49006b
:104010000d520d00010d0a000d130d001c0d2500a1
:104020000d2e0d00370d40000d000000d20a0000db
:104030000a02000000000000760d000028000000c9
:104040000000000000080000d20200000000000094
:10405000a80d0000020000000200000001000000a6
:10406000aa0d00000200000002000000a40d0000e4
:104070009e0d00000a00000000000000480e000035
:104080001200000002000000010002000004000015
:104090000800100000000000202b2d00233000003d
:1040a0005a0e00000800000002000000686a6c0060
:1040b000747a4c0000000000ac0d000048000000c5
:1040c000020000000000000000000000244000008a
:1040d0000000000000005900400000000000000047
:1040e00088c34000000000000084d7009741000012
:1040f00080e0370079c3410043176e0005b5b50075
:10410000b8934600f5f93f00e9034f00384d3200ff
:104110001d30f900487782005a3cbf00737fdd00f4
:104120004f157500f40d0000320000000200000081
:104130004e414e00006e61006e0049004e46000088
:10414000696e660000303100323334003536370096
:104150003839610062636400656600003031320006
:104160003334350036373800394142004344450086
:1041700046000000260e00002200000002000000a1
:10418000303132003334350036373800396162005f
:104190006364650066003000313233003435360028
:1041a00037383900414243004445460000000000d2
:1041b000620e00000200000002000000000000008b
:1041c000640e000002000000020000003000000049
:1041d000660e000002000000020000000000000067
:0441e00000000000db
:020000040000fa
:1041e40020ad2000d06688009b00070031e2a900c2
:1041f40031a2a9003182a9003162a900c0cfb30065
:104204003162b60030e2a80030c2a90030a2a90091
:104214003082a90090cfb3003062b6003002a9000a
:104224003062a90032c2bf00f043b2000074a000a3
:1042340032e2b7003222a90050012000c0118800e8
:1042440031e2a8003342a800c0fb270000000000b0
:104254000000e900fdff3a0024000700b3c0bf00de
:1042640081cfb300014060006040b300b3e0b70009
:1042740087c0a90097c0a8003342a90031e2a80072
:104284003222a900000006003600f800809fbe001c
:10429400829fbe00849fbe00869fbe0032c2bf00c4
:1042a4000008a30006003200b1118000d06680002f
:1042b400b700070032c2bf000008a300faff3a00ab
:1042c40032c2bf000018a300010032003222a9004c
:1042d40087c0a9004f03be004f02be004f01be00bd
:1042e4004f00be003600f90000400600889fbe0063
:1042f4008a1f7800c9d520000905780019007800c4
:104304003d00070099007800314090000080fb00d8
:10431400e60f40000e0032000004eb0068c0780095
:104324000080fb0012fd070019fd07000004e000f7
:10433400fdff3a000804e8009a007800314090003c
:104344000080fb0066004000800f5400f3ff35003e
:104354008000eb00000000008100e800c0fb2700a3
:10436400808f5000fbff3a008984e80060d720006a
:10437400890f5000e0ff3a004f0578004f04be005b
:1043840000000600889fbe0080047800d06680008c
:104394004700070080007800600c2000808f5000e8
:1043a4000600360060ccb300804c7800a2c3b30092
:1043b40002c04000f0c4990003003700814c78002b
:1043c4000040eb00f0c499001904e000080032003a
:1043d40018002000d06680005700070000f47c001d
:1043e4000804e8001980fb00880f5000f9ff310031
:1043f4004f04be00000006008001780030409000a9
:104404000080fb006603400064024000e20f52009b
:1044140003003c000001eb00820278000a00370030
:10442400210020000001eb008202780061c07900c5
:104434000080fb0000014100828242008100e8000c
:10444400848f5000f9ff3a000680410062f89f0013
:1044540075f89f0000000600000278008000eb0061
:104464008041eb0002202000035878008100e8001e
:10447400828f5000fcff3a000000eb0000029a001b
:1044840010029a0021029a006020200004004000db
:1044940003487800000006000000e000030032003a
:1044a4001000e000010032000008eb0000000600ec
:1044b4000000e00009003200000192009000920028
:1044c400810f510002003c000280500003003700bd
:1044d400200092000080400002005000000006000e
:1044e4000000e0000100320000009200000006001d
:1044f4000000e000010032001000920000000600fd
:10450400881f7800000478000000e00007003200f3
:10451400e7ff07000000e0000400320008009200fa
:10452400080040001080fb00010037000000eb0091
:104534004f04780000000600881f7800000478000b
:10454400e10f20000000e0000e003200d8ff070059
:10455400010820000000e0000a00320088009200f8
:10456400e1417c00280092000000e9000001eb001a
:10457400808f5000010031000101e80002049a001c
:104584008380fb00010078004f04780000000600df
:10459400889fbe0000047800814478001000200049
:1045a4000800e0001400320008007800c0ff070093
:1045b400a80092008100e900810f500004003a0035
:1045c40060202000080040001048e8000a0037007e
:1045d4001800920009707c00800078002800920086
:1045e4000000e9000001eb00808f50000100310061
:1045f4000101e80012049a004f04be000000060006
:10460400000178000000e0000d003a0012003700bd
:104614008059eb008100e80022009200810f5000d5
:10462400fbff3e000000eb0000019a0010019a001d
:104634006120200082804000804878000600370016
:10464400200092000000e000f6ff320082017800b2
:104654008000eb00eeff3700000006000000e000e1
:1046640001003a00020037006020b0001080fb0017
:1046740000000600800078000041eb00506d8000cf
:10468400104090000004e00001003a0012c0b300a2
:10469400924098000041eb00506d80002040900053
:1046a4000004e00001003a0012c0b300a2409800e8
:1046b40000000600516d8000114090000040e800a9
:1046c40090409800e24f500003003a008040eb0015
:1046d400506d800011409800516d80002140900081
:1046e4000040e800a0409800f94f500003003a0051
:1046f4008040eb00506d80002140980000000600cf
:10470400ecff070000000600b500070000000600eb
:1047140023da200093417800e1c0610001007800b1
:104724009eedb700c4c2bf000004a10001407000a8
:10473400c4e2b7000381fb000200d10061406000c5
:104744009fedb70000404000412c200091407800cc
:104754000114a10080c0700001007800c4e2b70019
:104764004211de006141610002007800a0edb70053
:104774004211dd00c4c2bf000024a1000240700049
:10478400c4e2b7000340e8008040eb00e74f50006c
:1047940001003e008040780001007800a2edb700df
:1047a40000000600e10f500006003200e20f500046
:1047b400060032000000e00005003a00d0ff0700c8
:1047c40003003700d0ff070001003700d0ff0700c7
:1047d40000000600506d80008040eb000158780016
:1047e4000158780001487800010078009eedb70078
:1047f4009f6def00a06def0001007800a2edb700ff
:1048040000ff2f001efc070000012800200888007c
:10481400f0342c001008880080ff2f000016880058
:104824000000eb0060198800601b88003d00070051
:104834000000060021e2a90021a2a9002182a9000a
:104844002162a900c0cfb3002162b60020e2a80013
:1048540020c2a90020a2a9002082a90090cfb30001
:104864002062b6002002a9002062a900f0c3b300b0
:104874002262b6002222a9005001200040118800c3
:1048840021e2a8002342a800c0fb2700000000008a
:104894000000e900fdff3a0060cd2900801f780088
:1048a400110007008f87e900000006002c01fa00c0
:1048b400efa09600c0ec2f000f01400068004000fc
:1048c4000f00400020ef070040ed2f000f004000d4
:1048d400b7fb0700aefb07000004e000fdff3a0051
:1048e4000080fa00000006002c01fa00efa09600f8
:1048f400c0ec2f000f014000680040000f00400092
:1049040011ef070040ed2f000f004000c2fb07002d
:10491400a3fb07000004e000fdff3a000080fa005a
:1049240000000600c3ff07002dfe0700e2fc07009d
:1049340000000600c800fa00881f780060f32f000a
:104944000f0040008ffe0700ef7096000180fb000f
:10495400801f780080cf2900801f7800e2ff0700c5
:10496400e4875700ef7096000104e0001200320063
:104974001800200061f32f008f80400061407c000c
:104984000080fb00801f7800c0cf2900801f7800c2
:10499400d5ff0700e487570081fb07000004e0000f
:1049a400fdff3a000804e800ef7096000180fb0068
:1049b400800f5400efff34005ff897000080fb0085
:1049c400801f780010d02900801f7800c6ff0700e0
:1049d400e48757004f0478000080fa0000000600c6
:1049e400c800fa0080f32f000f00400065fe0700a6
:1049f40080f32f000f004000b3fc07000080fa0092
:104a0400000006000400fa00881f78006680570042
:104a140018ff07000000eb0062ff070018002000e9
:104a2400e680570061407c000004e0000200320090
:104a3400080078005bff07000804e800e30f540057
:104a4400f7ff3a004f0478000080fa0000000600e7
:104a540060022000303a88004427ef0010c0b30001
:104a64005cff070084c0bf000038a300fdff3200d4
:0c4a74008460a900e3ff0700faff370090
:020000040000fa
:044a80000000fe0034
:00000001FF
